{
  "contractName": "Auction",
  "abi": [
    {
      "inputs": [],
      "name": "getReserved_price",
      "outputs": [
        {
          "internalType": "uint256",
          "name": "",
          "type": "uint256"
        }
      ],
      "stateMutability": "view",
      "type": "function",
      "constant": true
    },
    {
      "inputs": [
        {
          "internalType": "uint256",
          "name": "_res_price",
          "type": "uint256"
        }
      ],
      "name": "setReserved_price",
      "outputs": [],
      "stateMutability": "nonpayable",
      "type": "function"
    },
    {
      "inputs": [],
      "name": "TimeDuringRegister",
      "outputs": [
        {
          "internalType": "uint256",
          "name": "",
          "type": "uint256"
        }
      ],
      "stateMutability": "nonpayable",
      "type": "function"
    },
    {
      "inputs": [],
      "name": "TimeDuringAuction",
      "outputs": [
        {
          "internalType": "uint256",
          "name": "",
          "type": "uint256"
        }
      ],
      "stateMutability": "nonpayable",
      "type": "function"
    },
    {
      "inputs": [],
      "name": "TimeBeforeSold",
      "outputs": [
        {
          "internalType": "uint256",
          "name": "",
          "type": "uint256"
        }
      ],
      "stateMutability": "nonpayable",
      "type": "function"
    },
    {
      "inputs": [
        {
          "internalType": "uint256",
          "name": "_value",
          "type": "uint256"
        },
        {
          "internalType": "address payable",
          "name": "addr",
          "type": "address"
        }
      ],
      "name": "addBidder",
      "outputs": [],
      "stateMutability": "nonpayable",
      "type": "function"
    },
    {
      "inputs": [
        {
          "internalType": "uint256",
          "name": "amount",
          "type": "uint256"
        }
      ],
      "name": "bid",
      "outputs": [],
      "stateMutability": "payable",
      "type": "function",
      "payable": true
    },
    {
      "inputs": [],
      "name": "biggestBidder",
      "outputs": [
        {
          "internalType": "address payable",
          "name": "",
          "type": "address"
        }
      ],
      "stateMutability": "view",
      "type": "function",
      "constant": true
    },
    {
      "inputs": [],
      "name": "refund",
      "outputs": [],
      "stateMutability": "nonpayable",
      "type": "function"
    },
    {
      "inputs": [],
      "name": "transfertOwnership",
      "outputs": [],
      "stateMutability": "nonpayable",
      "type": "function"
    },
    {
      "inputs": [],
      "name": "auctionEnd",
      "outputs": [],
      "stateMutability": "nonpayable",
      "type": "function"
    }
  ],
  "bytecode": "0x608060405234801561001057600080fd5b506115b8806100206000396000f3fe60806040526004361061009c5760003560e01c80635ccdeeec116100645780635ccdeeec1461013f57806379771f301461016a578063bdf3253d14610181578063bf3c3d52146101ac578063db578006146101d7578063f5330cf1146102005761009c565b806328aaa44d146100a15780632a24f46c146100ca5780633810f05b146100e1578063454a2ab31461010c578063590e1ae314610128575b600080fd5b3480156100ad57600080fd5b506100c860048036038101906100c391906110ce565b61022b565b005b3480156100d657600080fd5b506100df610521565b005b3480156100ed57600080fd5b506100f661075f565b604051610103919061111d565b60405180910390f35b61012660048036038101906101219190611138565b61077c565b005b34801561013457600080fd5b5061013d6109c7565b005b34801561014b57600080fd5b50610154610c5c565b604051610161919061111d565b60405180910390f35b34801561017657600080fd5b5061017f610c66565b005b34801561018d57600080fd5b50610196610e80565b6040516101a39190611174565b60405180910390f35b3480156101b857600080fd5b506101c1610ff0565b6040516101ce919061111d565b60405180910390f35b3480156101e357600080fd5b506101fe60048036038101906101f99190611138565b61100e565b005b34801561020c57600080fd5b50610215611018565b604051610222919061111d565b60405180910390f35b60008054906101000a900473ffffffffffffffffffffffffffffffffffffffff1673ffffffffffffffffffffffffffffffffffffffff163373ffffffffffffffffffffffffffffffffffffffff16036102b9576040517f08c379a00000000000000000000000000000000000000000000000000000000081526004016102b0906111ec565b60405180910390fd5b6102c161075f565b4210610302576040517f08c379a00000000000000000000000000000000000000000000000000000000081526004016102f990611258565b60405180910390fd5b600660003373ffffffffffffffffffffffffffffffffffffffff1673ffffffffffffffffffffffffffffffffffffffff16815260200190815260200160002060010160149054906101000a900460ff16610391576040517f08c379a0000000000000000000000000000000000000000000000000000000008152600401610388906112ea565b60405180910390fd5b600060405180606001604052808481526020018373ffffffffffffffffffffffffffffffffffffffff16815260200160011515815250905080600660003373ffffffffffffffffffffffffffffffffffffffff1673ffffffffffffffffffffffffffffffffffffffff1681526020019081526020016000206000820151816000015560208201518160010160006101000a81548173ffffffffffffffffffffffffffffffffffffffff021916908373ffffffffffffffffffffffffffffffffffffffff16021790555060408201518160010160146101000a81548160ff02191690831515021790555090505060078190806001815401808255809150506001900390600052602060002090600202016000909190919091506000820151816000015560208201518160010160006101000a81548173ffffffffffffffffffffffffffffffffffffffff021916908373ffffffffffffffffffffffffffffffffffffffff16021790555060408201518160010160146101000a81548160ff0219169083151502179055505050505050565b610529611018565b421061056a576040517f08c379a000000000000000000000000000000000000000000000000000000000815260040161056190611356565b60405180910390fd5b610572610ff0565b42116105b3576040517f08c379a00000000000000000000000000000000000000000000000000000000081526004016105aa906113c2565b60405180910390fd5b60011515600660003373ffffffffffffffffffffffffffffffffffffffff1673ffffffffffffffffffffffffffffffffffffffff16815260200190815260200160002060010160149054906101000a900460ff16151514610649576040517f08c379a00000000000000000000000000000000000000000000000000000000081526004016106409061142e565b60405180910390fd5b600254600354106107055760008054906101000a900473ffffffffffffffffffffffffffffffffffffffff1673ffffffffffffffffffffffffffffffffffffffff166108fc6006600061069a610e80565b73ffffffffffffffffffffffffffffffffffffffff1673ffffffffffffffffffffffffffffffffffffffff168152602001908152602001600020600001549081150290604051600060405180830381858888f19350505050158015610703573d6000803e3d6000fd5b505b61070d6109c7565b610715610e80565b600560006101000a81548173ffffffffffffffffffffffffffffffffffffffff021916908373ffffffffffffffffffffffffffffffffffffffff16021790555061075d610c66565b565b60004260048190555060b4600454610777919061147d565b905090565b60008054906101000a900473ffffffffffffffffffffffffffffffffffffffff1673ffffffffffffffffffffffffffffffffffffffff163373ffffffffffffffffffffffffffffffffffffffff160361080a576040517f08c379a0000000000000000000000000000000000000000000000000000000008152600401610801906111ec565b60405180910390fd5b610812610ff0565b4210610853576040517f08c379a000000000000000000000000000000000000000000000000000000000815260040161084a90611258565b60405180910390fd5b60011515600660003373ffffffffffffffffffffffffffffffffffffffff1673ffffffffffffffffffffffffffffffffffffffff16815260200190815260200160002060010160149054906101000a900460ff161515146108e9576040517f08c379a00000000000000000000000000000000000000000000000000000000081526004016108e09061142e565b60405180910390fd5b6108f1611018565b4210610932576040517f08c379a000000000000000000000000000000000000000000000000000000000815260040161092990611356565b60405180910390fd5b6003548111610976576040517f08c379a000000000000000000000000000000000000000000000000000000000815260040161096d906114fd565b60405180910390fd5b80600660003373ffffffffffffffffffffffffffffffffffffffff1673ffffffffffffffffffffffffffffffffffffffff168152602001908152602001600020600001819055508060038190555050565b60008054906101000a900473ffffffffffffffffffffffffffffffffffffffff1673ffffffffffffffffffffffffffffffffffffffff163373ffffffffffffffffffffffffffffffffffffffff1603610a55576040517f08c379a0000000000000000000000000000000000000000000000000000000008152600401610a4c906111ec565b60405180910390fd5b610a5d610ff0565b4211610a9e576040517f08c379a0000000000000000000000000000000000000000000000000000000008152600401610a95906113c2565b60405180910390fd5b610aa6611018565b4210610ae7576040517f08c379a0000000000000000000000000000000000000000000000000000000008152600401610ade90611356565b60405180910390fd5b60011515600660003373ffffffffffffffffffffffffffffffffffffffff1673ffffffffffffffffffffffffffffffffffffffff16815260200190815260200160002060010160149054906101000a900460ff16151514610b7d576040517f08c379a0000000000000000000000000000000000000000000000000000000008152600401610b749061142e565b60405180910390fd5b60005b6007805490508160ff1611610c595760078160ff1681548110610ba657610ba561151d565b5b906000526020600020906002020160010160009054906101000a900473ffffffffffffffffffffffffffffffffffffffff1673ffffffffffffffffffffffffffffffffffffffff166108fc60078360ff1681548110610c0857610c0761151d565b5b9060005260206000209060020201600001549081150290604051600060405180830381858888f19350505050158015610c45573d6000803e3d6000fd5b508080610c5190611559565b915050610b80565b50565b6000600254905090565b60008054906101000a900473ffffffffffffffffffffffffffffffffffffffff1673ffffffffffffffffffffffffffffffffffffffff163373ffffffffffffffffffffffffffffffffffffffff1603610cf4576040517f08c379a0000000000000000000000000000000000000000000000000000000008152600401610ceb906111ec565b60405180910390fd5b610cfc610ff0565b4211610d3d576040517f08c379a0000000000000000000000000000000000000000000000000000000008152600401610d34906113c2565b60405180910390fd5b610d45611018565b4210610d86576040517f08c379a0000000000000000000000000000000000000000000000000000000008152600401610d7d90611356565b60405180910390fd5b60011515600660003373ffffffffffffffffffffffffffffffffffffffff1673ffffffffffffffffffffffffffffffffffffffff16815260200190815260200160002060010160149054906101000a900460ff16151514610e1c576040517f08c379a0000000000000000000000000000000000000000000000000000000008152600401610e139061142e565b60405180910390fd5b600560009054906101000a900473ffffffffffffffffffffffffffffffffffffffff166000806101000a81548173ffffffffffffffffffffffffffffffffffffffff021916908373ffffffffffffffffffffffffffffffffffffffff160217905550565b600060011515600660003373ffffffffffffffffffffffffffffffffffffffff1673ffffffffffffffffffffffffffffffffffffffff16815260200190815260200160002060010160149054906101000a900460ff16151514610f18576040517f08c379a0000000000000000000000000000000000000000000000000000000008152600401610f0f9061142e565b60405180910390fd5b60008060005b6007805490508160ff1611610fa25760078160ff1681548110610f4457610f4361151d565b5b906000526020600020906002020160000154831015610f8f5760078160ff1681548110610f7457610f7361151d565b5b90600052602060002090600202016000015492508060ff1691505b8080610f9a90611559565b915050610f1e565b5060078181548110610fb757610fb661151d565b5b906000526020600020906002020160010160009054906101000a900473ffffffffffffffffffffffffffffffffffffffff169250505090565b60004260018190555061012c600154611009919061147d565b905090565b8060028190555050565b600042600181905550602d600154611030919061147d565b905090565b600080fd5b6000819050919050565b61104d8161103a565b811461105857600080fd5b50565b60008135905061106a81611044565b92915050565b600073ffffffffffffffffffffffffffffffffffffffff82169050919050565b600061109b82611070565b9050919050565b6110ab81611090565b81146110b657600080fd5b50565b6000813590506110c8816110a2565b92915050565b600080604083850312156110e5576110e4611035565b5b60006110f38582860161105b565b9250506020611104858286016110b9565b9150509250929050565b6111178161103a565b82525050565b6000602082019050611132600083018461110e565b92915050565b60006020828403121561114e5761114d611035565b5b600061115c8482850161105b565b91505092915050565b61116e81611090565b82525050565b60006020820190506111896000830184611165565b92915050565b600082825260208201905092915050565b7f6c652070617965757220657374206c652070726f707269657461697265000000600082015250565b60006111d6601d8361118f565b91506111e1826111a0565b602082019050919050565b60006020820190508181036000830152611205816111c9565b9050919050565b7f4c657320696e736372697074696f6e7320736f6e74207465726d696e65657300600082015250565b6000611242601f8361118f565b915061124d8261120c565b602082019050919050565b6000602082019050818103600083015261127181611235565b9050919050565b7f6c6520626964646572206e6520646f697420706173206574726520696e73637260008201527f6974000000000000000000000000000000000000000000000000000000000000602082015250565b60006112d460228361118f565b91506112df82611278565b604082019050919050565b60006020820190508181036000830152611303816112c7565b9050919050565b7f6c27656e6368657265206573742061646a756765652076656e64750000000000600082015250565b6000611340601b8361118f565b915061134b8261130a565b602082019050919050565b6000602082019050818103600083015261136f81611333565b9050919050565b7f6c27656e6368657265206e2765737420706173207465726d696e656500000000600082015250565b60006113ac601c8361118f565b91506113b782611376565b602082019050919050565b600060208201905081810360008301526113db8161139f565b9050919050565b7f6c652062696464657220646f6974206574726520696e73637269740000000000600082015250565b6000611418601b8361118f565b9150611423826113e2565b602082019050919050565b600060208201905081810360008301526114478161140b565b9050919050565b7f4e487b7100000000000000000000000000000000000000000000000000000000600052601160045260246000fd5b60006114888261103a565b91506114938361103a565b92508282019050808211156114ab576114aa61144e565b5b92915050565b7f6c65206d6f6e74616e74206573742074726f7020666169626c65000000000000600082015250565b60006114e7601a8361118f565b91506114f2826114b1565b602082019050919050565b60006020820190508181036000830152611516816114da565b9050919050565b7f4e487b7100000000000000000000000000000000000000000000000000000000600052603260045260246000fd5b600060ff82169050919050565b60006115648261154c565b915060ff82036115775761157661144e565b5b60018201905091905056fea2646970667358221220b987ade8260b3f9146c178e2dbdd4dcbce620325c6cc6d4d2004f2a3beb350f064736f6c63430008110033",
  "immutableReferences": {},
  "source": "// SPDX-License-Identifier: GPL-3.0-or-later\npragma solidity >=0.4.22 <0.9.0;\n\ncontract Auction  {\n    address payable owner;\n    uint256 start_time;\n    uint256 reserve_price;\n    uint256 current_price;\n    uint256 start_register;\n    //mapping(address => uint256) bids;\n    address payable winner;\n    struct Bidder {\n        uint256 Value;\n        address payable addr_emitter;\n        bool isRegister;\n    }\n    mapping (address => Bidder) bidders;\n    Bidder[]  bids;\n    modifier ownable() {\n        require(msg.sender != owner, \"le payeur est le proprietaire\");\n        _;\n    }\n    modifier register() {\n        require(block.timestamp<TimeDuringRegister(), \"Les inscriptions sont terminees\");\n        _;\n    }\n     modifier isBidder(){\n     require(bidders[msg.sender].isRegister==true,\"le bidder doit etre inscrit\");\n     _;\n    }\n    modifier AuctionTime() {\n        require(block.timestamp<TimeDuringAuction(), \"Les inscriptions sont terminees\");\n        _;\n    }\n    modifier ActionAfterAuction(){\n      require(block.timestamp>TimeDuringAuction(), \"l'enchere n'est pas terminee\");\n      _;\n    }\n    modifier ActionBeforeLastBid(){\n        require(block.timestamp<TimeBeforeSold(), \"l'enchere est adjugee vendu\");\n        _;\n    }\n    modifier ActionAfterLastBid(){\n        require(block.timestamp<TimeBeforeSold(), \"l'enchere est adjugee vendu\");\n        _;\n    }\n    function getReserved_price() public view returns(uint256){\n        return (reserve_price);\n    }\n    function setReserved_price(uint256 _res_price) public {\n        reserve_price = _res_price;\n    }\n    function TimeDuringRegister() public returns(uint256){\n        start_register = block.timestamp;\n        return (start_register +3 minutes);\n    }\n    function TimeDuringAuction() public returns(uint256) {\n        start_time = block.timestamp;\n        return (start_time +5 minutes);\n    }\n    function TimeBeforeSold() public returns(uint256) {\n        start_time = block.timestamp;\n        return(start_time + 45 seconds);\n    }\n   \n    function addBidder (uint256 _value, address payable addr) public ownable register{\n        require(bidders[msg.sender].isRegister,\"le bidder ne doit pas etre inscrit\");\n        Bidder memory newBidder = Bidder(_value, addr,true);\n        bidders[msg.sender] = newBidder;\n        bids.push(newBidder);\n    }\n    function bid(uint256 amount) public payable ownable AuctionTime isBidder ActionBeforeLastBid {\n        require(amount > current_price, \"le montant est trop faible\");\n         bidders[msg.sender].Value=amount;\n         current_price = amount;\n    }\n    function biggestBidder() public view isBidder returns(address payable) {\n      uint max = 0;\n      uint win = 0;\n      for(uint8 i = 0; i <= bids.length; i++){\n            if (max<(bids[i].Value)){\n              max = bids[i].Value;\n              win = i;\n            }\n        }\n        return (bids[win].addr_emitter);\n\n    }\n    function refund() public ownable ActionAfterAuction ActionAfterLastBid isBidder{\n      for(uint8 i = 0; i <= bids.length; i++){\n            (bids[i].addr_emitter).transfer(bids[i].Value);\n        }\n    }\n    function transfertOwnership() public ownable ActionAfterAuction ActionAfterLastBid isBidder{\n        \n        owner = winner;\n    }\n    function auctionEnd() public ActionAfterLastBid ActionAfterAuction isBidder{\n\n        if (current_price >= reserve_price) {\n            owner.transfer(bidders[biggestBidder()].Value);\n        }\n        refund();\n        winner = biggestBidder();\n        transfertOwnership();\n    }\n} ",
  "sourcePath": "C:\\Users\\debuf\\Documents\\developpement\\Auctions\\contracts\\Auction.sol",
  "compiler": {
    "name": "solc",
    "version": "0.8.17+commit.8df45f5f.Emscripten.clang"
  },
  "schemaVersion": "3.4.15",
  "updatedAt": "2023-09-20T12:42:07.051Z",
  "networkType": "ethereum",
  "devdoc": {
    "kind": "dev",
    "methods": {},
    "version": 1
  },
  "userdoc": {
    "kind": "user",
    "methods": {},
    "version": 1
  }
}