{
  "contractName": "Auction",
  "abi": [
    {
      "inputs": [],
      "stateMutability": "nonpayable",
      "type": "constructor"
    },
    {
      "inputs": [],
      "name": "getReserved_price",
      "outputs": [
        {
          "internalType": "uint256",
          "name": "",
          "type": "uint256"
        }
      ],
      "stateMutability": "view",
      "type": "function",
      "constant": true
    },
    {
      "inputs": [
        {
          "internalType": "uint256",
          "name": "_res_price",
          "type": "uint256"
        }
      ],
      "name": "setReserved_price",
      "outputs": [],
      "stateMutability": "nonpayable",
      "type": "function"
    },
    {
      "inputs": [],
      "name": "TimeDuringRegister",
      "outputs": [
        {
          "internalType": "uint256",
          "name": "",
          "type": "uint256"
        }
      ],
      "stateMutability": "nonpayable",
      "type": "function"
    },
    {
      "inputs": [],
      "name": "TimeDuringAuction",
      "outputs": [
        {
          "internalType": "uint256",
          "name": "",
          "type": "uint256"
        }
      ],
      "stateMutability": "nonpayable",
      "type": "function"
    },
    {
      "inputs": [],
      "name": "TimeBeforeSold",
      "outputs": [
        {
          "internalType": "uint256",
          "name": "",
          "type": "uint256"
        }
      ],
      "stateMutability": "nonpayable",
      "type": "function"
    },
    {
      "inputs": [
        {
          "internalType": "uint256",
          "name": "_value",
          "type": "uint256"
        },
        {
          "internalType": "address payable",
          "name": "addr",
          "type": "address"
        }
      ],
      "name": "addBidder",
      "outputs": [],
      "stateMutability": "nonpayable",
      "type": "function"
    },
    {
      "inputs": [
        {
          "internalType": "address payable",
          "name": "addr",
          "type": "address"
        }
      ],
      "name": "getBiddersValue",
      "outputs": [
        {
          "internalType": "uint256",
          "name": "",
          "type": "uint256"
        }
      ],
      "stateMutability": "view",
      "type": "function",
      "constant": true
    },
    {
      "inputs": [
        {
          "internalType": "address payable",
          "name": "addr",
          "type": "address"
        }
      ],
      "name": "getBiddersRegister",
      "outputs": [
        {
          "internalType": "bool",
          "name": "",
          "type": "bool"
        }
      ],
      "stateMutability": "view",
      "type": "function",
      "constant": true
    },
    {
      "inputs": [
        {
          "internalType": "uint256",
          "name": "amount",
          "type": "uint256"
        }
      ],
      "name": "bid",
      "outputs": [],
      "stateMutability": "payable",
      "type": "function",
      "payable": true
    },
    {
      "inputs": [],
      "name": "getCurrentPrice",
      "outputs": [
        {
          "internalType": "uint256",
          "name": "",
          "type": "uint256"
        }
      ],
      "stateMutability": "view",
      "type": "function",
      "constant": true
    },
    {
      "inputs": [
        {
          "internalType": "uint256",
          "name": "cp",
          "type": "uint256"
        }
      ],
      "name": "setCurrentPrice",
      "outputs": [],
      "stateMutability": "nonpayable",
      "type": "function"
    },
    {
      "inputs": [],
      "name": "biggestBidder",
      "outputs": [
        {
          "internalType": "address payable",
          "name": "",
          "type": "address"
        }
      ],
      "stateMutability": "view",
      "type": "function",
      "constant": true
    },
    {
      "inputs": [],
      "name": "refund",
      "outputs": [],
      "stateMutability": "nonpayable",
      "type": "function"
    },
    {
      "inputs": [],
      "name": "transfertOwnership",
      "outputs": [],
      "stateMutability": "nonpayable",
      "type": "function"
    },
    {
      "inputs": [],
      "name": "auctionEnd",
      "outputs": [],
      "stateMutability": "nonpayable",
      "type": "function"
    }
  ],
  "bytecode": "0x608060405234801561001057600080fd5b50336000806101000a81548173ffffffffffffffffffffffffffffffffffffffff021916908373ffffffffffffffffffffffffffffffffffffffff160217905550611881806100606000396000f3fe6080604052600436106100e85760003560e01c80635ccdeeec1161008a578063db57800611610059578063db57800614610289578063eb91d37e146102b2578063f5330cf1146102dd578063fd91b5c014610308576100e8565b80635ccdeeec146101f157806379771f301461021c578063bdf3253d14610233578063bf3c3d521461025e576100e8565b80632abddadb116100c65780632abddadb146101565780633810f05b14610193578063454a2ab3146101be578063590e1ae3146101da576100e8565b806318b20071146100ed57806328aaa44d146101165780632a24f46c1461013f575b600080fd5b3480156100f957600080fd5b50610114600480360381019061010f91906112d6565b610345565b005b34801561012257600080fd5b5061013d60048036038101906101389190611361565b61034f565b005b34801561014b57600080fd5b50610154610646565b005b34801561016257600080fd5b5061017d600480360381019061017891906113a1565b610884565b60405161018a91906113dd565b60405180910390f35b34801561019f57600080fd5b506101a86108d0565b6040516101b591906113dd565b60405180910390f35b6101d860048036038101906101d391906112d6565b6108ed565b005b3480156101e657600080fd5b506101ef610b38565b005b3480156101fd57600080fd5b50610206610dcd565b60405161021391906113dd565b60405180910390f35b34801561022857600080fd5b50610231610dd7565b005b34801561023f57600080fd5b50610248610ff1565b6040516102559190611407565b60405180910390f35b34801561026a57600080fd5b50610273611161565b60405161028091906113dd565b60405180910390f35b34801561029557600080fd5b506102b060048036038101906102ab91906112d6565b6111c8565b005b3480156102be57600080fd5b506102c76111d2565b6040516102d491906113dd565b60405180910390f35b3480156102e957600080fd5b506102f26111dc565b6040516102ff91906113dd565b60405180910390f35b34801561031457600080fd5b5061032f600480360381019061032a91906113a1565b611242565b60405161033c919061143d565b60405180910390f35b8060038190555050565b60008054906101000a900473ffffffffffffffffffffffffffffffffffffffff1673ffffffffffffffffffffffffffffffffffffffff163373ffffffffffffffffffffffffffffffffffffffff16036103dd576040517f08c379a00000000000000000000000000000000000000000000000000000000081526004016103d4906114b5565b60405180910390fd5b6103e56108d0565b4210610426576040517f08c379a000000000000000000000000000000000000000000000000000000000815260040161041d90611521565b60405180910390fd5b600660003373ffffffffffffffffffffffffffffffffffffffff1673ffffffffffffffffffffffffffffffffffffffff16815260200190815260200160002060010160149054906101000a900460ff16156104b6576040517f08c379a00000000000000000000000000000000000000000000000000000000081526004016104ad906115b3565b60405180910390fd5b600060405180606001604052808481526020018373ffffffffffffffffffffffffffffffffffffffff16815260200160011515815250905080600660003373ffffffffffffffffffffffffffffffffffffffff1673ffffffffffffffffffffffffffffffffffffffff1681526020019081526020016000206000820151816000015560208201518160010160006101000a81548173ffffffffffffffffffffffffffffffffffffffff021916908373ffffffffffffffffffffffffffffffffffffffff16021790555060408201518160010160146101000a81548160ff02191690831515021790555090505060078190806001815401808255809150506001900390600052602060002090600202016000909190919091506000820151816000015560208201518160010160006101000a81548173ffffffffffffffffffffffffffffffffffffffff021916908373ffffffffffffffffffffffffffffffffffffffff16021790555060408201518160010160146101000a81548160ff0219169083151502179055505050505050565b61064e6111dc565b421061068f576040517f08c379a00000000000000000000000000000000000000000000000000000000081526004016106869061161f565b60405180910390fd5b610697611161565b42116106d8576040517f08c379a00000000000000000000000000000000000000000000000000000000081526004016106cf9061168b565b60405180910390fd5b60011515600660003373ffffffffffffffffffffffffffffffffffffffff1673ffffffffffffffffffffffffffffffffffffffff16815260200190815260200160002060010160149054906101000a900460ff1615151461076e576040517f08c379a0000000000000000000000000000000000000000000000000000000008152600401610765906116f7565b60405180910390fd5b6002546003541061082a5760008054906101000a900473ffffffffffffffffffffffffffffffffffffffff1673ffffffffffffffffffffffffffffffffffffffff166108fc600660006107bf610ff1565b73ffffffffffffffffffffffffffffffffffffffff1673ffffffffffffffffffffffffffffffffffffffff168152602001908152602001600020600001549081150290604051600060405180830381858888f19350505050158015610828573d6000803e3d6000fd5b505b610832610b38565b61083a610ff1565b600560006101000a81548173ffffffffffffffffffffffffffffffffffffffff021916908373ffffffffffffffffffffffffffffffffffffffff160217905550610882610dd7565b565b6000600660008373ffffffffffffffffffffffffffffffffffffffff1673ffffffffffffffffffffffffffffffffffffffff168152602001908152602001600020600001549050919050565b60004260048190555060786004546108e89190611746565b905090565b60008054906101000a900473ffffffffffffffffffffffffffffffffffffffff1673ffffffffffffffffffffffffffffffffffffffff163373ffffffffffffffffffffffffffffffffffffffff160361097b576040517f08c379a0000000000000000000000000000000000000000000000000000000008152600401610972906114b5565b60405180910390fd5b610983611161565b42106109c4576040517f08c379a00000000000000000000000000000000000000000000000000000000081526004016109bb90611521565b60405180910390fd5b60011515600660003373ffffffffffffffffffffffffffffffffffffffff1673ffffffffffffffffffffffffffffffffffffffff16815260200190815260200160002060010160149054906101000a900460ff16151514610a5a576040517f08c379a0000000000000000000000000000000000000000000000000000000008152600401610a51906116f7565b60405180910390fd5b610a626111dc565b4210610aa3576040517f08c379a0000000000000000000000000000000000000000000000000000000008152600401610a9a9061161f565b60405180910390fd5b6003548111610ae7576040517f08c379a0000000000000000000000000000000000000000000000000000000008152600401610ade906117c6565b60405180910390fd5b80600660003373ffffffffffffffffffffffffffffffffffffffff1673ffffffffffffffffffffffffffffffffffffffff168152602001908152602001600020600001819055508060038190555050565b60008054906101000a900473ffffffffffffffffffffffffffffffffffffffff1673ffffffffffffffffffffffffffffffffffffffff163373ffffffffffffffffffffffffffffffffffffffff1603610bc6576040517f08c379a0000000000000000000000000000000000000000000000000000000008152600401610bbd906114b5565b60405180910390fd5b610bce611161565b4211610c0f576040517f08c379a0000000000000000000000000000000000000000000000000000000008152600401610c069061168b565b60405180910390fd5b610c176111dc565b4210610c58576040517f08c379a0000000000000000000000000000000000000000000000000000000008152600401610c4f9061161f565b60405180910390fd5b60011515600660003373ffffffffffffffffffffffffffffffffffffffff1673ffffffffffffffffffffffffffffffffffffffff16815260200190815260200160002060010160149054906101000a900460ff16151514610cee576040517f08c379a0000000000000000000000000000000000000000000000000000000008152600401610ce5906116f7565b60405180910390fd5b60005b6007805490508160ff1611610dca5760078160ff1681548110610d1757610d166117e6565b5b906000526020600020906002020160010160009054906101000a900473ffffffffffffffffffffffffffffffffffffffff1673ffffffffffffffffffffffffffffffffffffffff166108fc60078360ff1681548110610d7957610d786117e6565b5b9060005260206000209060020201600001549081150290604051600060405180830381858888f19350505050158015610db6573d6000803e3d6000fd5b508080610dc290611822565b915050610cf1565b50565b6000600254905090565b60008054906101000a900473ffffffffffffffffffffffffffffffffffffffff1673ffffffffffffffffffffffffffffffffffffffff163373ffffffffffffffffffffffffffffffffffffffff1603610e65576040517f08c379a0000000000000000000000000000000000000000000000000000000008152600401610e5c906114b5565b60405180910390fd5b610e6d611161565b4211610eae576040517f08c379a0000000000000000000000000000000000000000000000000000000008152600401610ea59061168b565b60405180910390fd5b610eb66111dc565b4210610ef7576040517f08c379a0000000000000000000000000000000000000000000000000000000008152600401610eee9061161f565b60405180910390fd5b60011515600660003373ffffffffffffffffffffffffffffffffffffffff1673ffffffffffffffffffffffffffffffffffffffff16815260200190815260200160002060010160149054906101000a900460ff16151514610f8d576040517f08c379a0000000000000000000000000000000000000000000000000000000008152600401610f84906116f7565b60405180910390fd5b600560009054906101000a900473ffffffffffffffffffffffffffffffffffffffff166000806101000a81548173ffffffffffffffffffffffffffffffffffffffff021916908373ffffffffffffffffffffffffffffffffffffffff160217905550565b600060011515600660003373ffffffffffffffffffffffffffffffffffffffff1673ffffffffffffffffffffffffffffffffffffffff16815260200190815260200160002060010160149054906101000a900460ff16151514611089576040517f08c379a0000000000000000000000000000000000000000000000000000000008152600401611080906116f7565b60405180910390fd5b60008060005b6007805490508160ff16116111135760078160ff16815481106110b5576110b46117e6565b5b9060005260206000209060020201600001548310156111005760078160ff16815481106110e5576110e46117e6565b5b90600052602060002090600202016000015492508060ff1691505b808061110b90611822565b91505061108f565b5060078181548110611128576111276117e6565b5b906000526020600020906002020160010160009054906101000a900473ffffffffffffffffffffffffffffffffffffffff169250505090565b600061116b6108d0565b42106111ac576040517f08c379a00000000000000000000000000000000000000000000000000000000081526004016111a390611521565b60405180910390fd5b4260018190555061012c6001546111c39190611746565b905090565b8060028190555050565b6000600354905090565b60006111e6611161565b4210611227576040517f08c379a000000000000000000000000000000000000000000000000000000000815260040161121e90611521565b60405180910390fd5b42600181905550602d60015461123d9190611746565b905090565b6000600660008373ffffffffffffffffffffffffffffffffffffffff1673ffffffffffffffffffffffffffffffffffffffff16815260200190815260200160002060010160149054906101000a900460ff169050919050565b600080fd5b6000819050919050565b6112b3816112a0565b81146112be57600080fd5b50565b6000813590506112d0816112aa565b92915050565b6000602082840312156112ec576112eb61129b565b5b60006112fa848285016112c1565b91505092915050565b600073ffffffffffffffffffffffffffffffffffffffff82169050919050565b600061132e82611303565b9050919050565b61133e81611323565b811461134957600080fd5b50565b60008135905061135b81611335565b92915050565b600080604083850312156113785761137761129b565b5b6000611386858286016112c1565b92505060206113978582860161134c565b9150509250929050565b6000602082840312156113b7576113b661129b565b5b60006113c58482850161134c565b91505092915050565b6113d7816112a0565b82525050565b60006020820190506113f260008301846113ce565b92915050565b61140181611323565b82525050565b600060208201905061141c60008301846113f8565b92915050565b60008115159050919050565b61143781611422565b82525050565b6000602082019050611452600083018461142e565b92915050565b600082825260208201905092915050565b7f6c652070617965757220657374206c652070726f707269657461697265000000600082015250565b600061149f601d83611458565b91506114aa82611469565b602082019050919050565b600060208201905081810360008301526114ce81611492565b9050919050565b7f4c657320696e736372697074696f6e7320736f6e74207465726d696e65657300600082015250565b600061150b601f83611458565b9150611516826114d5565b602082019050919050565b6000602082019050818103600083015261153a816114fe565b9050919050565b7f6c6520626964646572206e6520646f697420706173206574726520696e73637260008201527f6974000000000000000000000000000000000000000000000000000000000000602082015250565b600061159d602283611458565b91506115a882611541565b604082019050919050565b600060208201905081810360008301526115cc81611590565b9050919050565b7f6c27656e6368657265206573742061646a756765652076656e64750000000000600082015250565b6000611609601b83611458565b9150611614826115d3565b602082019050919050565b60006020820190508181036000830152611638816115fc565b9050919050565b7f6c27656e6368657265206e2765737420706173207465726d696e656500000000600082015250565b6000611675601c83611458565b91506116808261163f565b602082019050919050565b600060208201905081810360008301526116a481611668565b9050919050565b7f6c652062696464657220646f6974206574726520696e73637269740000000000600082015250565b60006116e1601b83611458565b91506116ec826116ab565b602082019050919050565b60006020820190508181036000830152611710816116d4565b9050919050565b7f4e487b7100000000000000000000000000000000000000000000000000000000600052601160045260246000fd5b6000611751826112a0565b915061175c836112a0565b925082820190508082111561177457611773611717565b5b92915050565b7f6c65206d6f6e74616e74206573742074726f7020666169626c65000000000000600082015250565b60006117b0601a83611458565b91506117bb8261177a565b602082019050919050565b600060208201905081810360008301526117df816117a3565b9050919050565b7f4e487b7100000000000000000000000000000000000000000000000000000000600052603260045260246000fd5b600060ff82169050919050565b600061182d82611815565b915060ff82036118405761183f611717565b5b60018201905091905056fea264697066735822122064af4627b8b5367f3cd450cfedc2e28e4e3917ccb80eec7cfee7417919140c8464736f6c63430008110033",
  "immutableReferences": {},
  "source": "// SPDX-License-Identifier: GPL-3.0-or-later\npragma solidity >=0.4.22 <0.9.0;\n\ncontract Auction  {\n    address payable owner;\n    uint256 start_time;\n    uint256 reserve_price;\n    uint256 current_price;\n    uint256 start_register;\n    //mapping(address => uint256) bids;\n    address payable winner;\n    struct Bidder {\n        uint256 Value;\n        address payable addr_emitter;\n        bool isRegister;\n    }\n    mapping (address => Bidder) bidders;\n    Bidder[]  bids;\n    constructor() {\n        owner = payable (msg.sender);\n    }\n    modifier ownable() {\n        require(msg.sender != owner, \"le payeur est le proprietaire\");\n        _;\n    }\n    modifier register() {\n        require(block.timestamp<TimeDuringRegister(), \"Les inscriptions sont terminees\");\n        _;\n    }\n     modifier isBidder(){\n     require(bidders[msg.sender].isRegister==true,\"le bidder doit etre inscrit\");\n     _;\n    }\n    modifier AuctionTime() {\n        require(block.timestamp<TimeDuringAuction(), \"Les inscriptions sont terminees\");\n        _;\n    }\n    modifier ActionAfterAuction(){\n      require(block.timestamp>TimeDuringAuction(), \"l'enchere n'est pas terminee\");\n      _;\n    }\n    modifier ActionBeforeLastBid(){\n        require(block.timestamp<TimeBeforeSold(), \"l'enchere est adjugee vendu\");\n        _;\n    }\n    modifier ActionAfterLastBid(){\n        require(block.timestamp<TimeBeforeSold(), \"l'enchere est adjugee vendu\");\n        _;\n    }\n    function getReserved_price() public view returns(uint256){\n        return (reserve_price);\n    }\n    function setReserved_price(uint256 _res_price) public {\n        reserve_price = _res_price;\n    }\n    function TimeDuringRegister() public returns(uint256){\n        start_register = block.timestamp;\n        return (start_register +2 minutes);\n    }\n    function TimeDuringAuction() public register returns(uint256) {\n        start_time = block.timestamp;\n        return (start_time +5 minutes);\n    }\n    function TimeBeforeSold() public AuctionTime returns(uint256) {\n        start_time = block.timestamp;\n        return(start_time + 45 seconds);\n    }\n   \n    function addBidder (uint256 _value, address payable addr) public ownable register {\n        require(!bidders[msg.sender].isRegister,\"le bidder ne doit pas etre inscrit\");\n        Bidder memory newBidder = Bidder(_value, addr,true);\n        bidders[msg.sender] = newBidder;\n        bids.push(newBidder);\n    }\n    function getBiddersValue(address payable addr) external view  returns(uint256){\n        return(bidders[addr].Value);\n    } \n    function getBiddersRegister(address payable addr) external view returns(bool){\n        return(bidders[addr].isRegister);\n    }\n    function bid(uint256 amount) public payable ownable AuctionTime isBidder ActionBeforeLastBid {\n        require(amount > current_price, \"le montant est trop faible\");\n         bidders[msg.sender].Value=amount;\n         current_price = amount;\n    }\n    function getCurrentPrice() external view returns(uint256){\n        return (current_price);\n    }function setCurrentPrice(uint256 cp) external {\n       current_price = cp;\n           }/*\n    function blockStart(uint256 time) external returns(uint256){\n        bloc= block.timestamp + time seconds;\n        return (bloc);\n    }\n    //\n    function blocKRegister () external{\n        TimeDuringRegister()+blockStart(1);\n    }*/\n    function biggestBidder() public view isBidder returns(address payable) {\n      uint max = 0;\n      uint win = 0;\n      for(uint8 i = 0; i <= bids.length; i++){\n            if (max<(bids[i].Value)){\n              max = bids[i].Value;\n              win = i;\n            }\n        }\n        return (bids[win].addr_emitter);\n\n    }\n    function refund() public ownable ActionAfterAuction ActionAfterLastBid isBidder{\n      for(uint8 i = 0; i <= bids.length; i++){\n            (bids[i].addr_emitter).transfer(bids[i].Value);\n        }\n    }\n    function transfertOwnership() public ownable ActionAfterAuction ActionAfterLastBid isBidder{\n        \n        owner = winner;\n    }\n    function auctionEnd() public ActionAfterLastBid ActionAfterAuction isBidder{\n\n        if (current_price >= reserve_price) {\n            owner.transfer(bidders[biggestBidder()].Value);\n        }\n        refund();\n        winner = biggestBidder();\n        transfertOwnership();\n    }\n} ",
  "sourcePath": "C:\\Users\\debuf\\Documents\\developpement\\Auctions\\contracts\\Auction.sol",
  "compiler": {
    "name": "solc",
    "version": "0.8.17+commit.8df45f5f.Emscripten.clang"
  },
  "schemaVersion": "3.4.15",
  "updatedAt": "2023-09-26T14:22:08.955Z",
  "networkType": "ethereum",
  "devdoc": {
    "kind": "dev",
    "methods": {},
    "version": 1
  },
  "userdoc": {
    "kind": "user",
    "methods": {},
    "version": 1
  }
}