{
  "contractName": "Auction",
  "abi": [
    {
      "inputs": [],
      "name": "getReserved_price",
      "outputs": [
        {
          "internalType": "uint256",
          "name": "",
          "type": "uint256"
        }
      ],
      "stateMutability": "view",
      "type": "function",
      "constant": true
    },
    {
      "inputs": [
        {
          "internalType": "uint256",
          "name": "_res_price",
          "type": "uint256"
        }
      ],
      "name": "setReserved_price",
      "outputs": [],
      "stateMutability": "nonpayable",
      "type": "function"
    },
    {
      "inputs": [],
      "name": "TimeDuringRegister",
      "outputs": [
        {
          "internalType": "uint256",
          "name": "",
          "type": "uint256"
        }
      ],
      "stateMutability": "nonpayable",
      "type": "function"
    },
    {
      "inputs": [],
      "name": "TimeDuringAuction",
      "outputs": [
        {
          "internalType": "uint256",
          "name": "",
          "type": "uint256"
        }
      ],
      "stateMutability": "nonpayable",
      "type": "function"
    },
    {
      "inputs": [],
      "name": "TimeBeforeSold",
      "outputs": [
        {
          "internalType": "uint256",
          "name": "",
          "type": "uint256"
        }
      ],
      "stateMutability": "nonpayable",
      "type": "function"
    },
    {
      "inputs": [
        {
          "internalType": "uint256",
          "name": "_value",
          "type": "uint256"
        },
        {
          "internalType": "address payable",
          "name": "addr",
          "type": "address"
        }
      ],
      "name": "addBidder",
      "outputs": [],
      "stateMutability": "nonpayable",
      "type": "function"
    },
    {
      "inputs": [
        {
          "internalType": "address payable",
          "name": "addr",
          "type": "address"
        }
      ],
      "name": "getBiddersValue",
      "outputs": [
        {
          "internalType": "uint256",
          "name": "",
          "type": "uint256"
        }
      ],
      "stateMutability": "view",
      "type": "function",
      "constant": true
    },
    {
      "inputs": [
        {
          "internalType": "address payable",
          "name": "addr",
          "type": "address"
        }
      ],
      "name": "getBiddersRegister",
      "outputs": [
        {
          "internalType": "bool",
          "name": "",
          "type": "bool"
        }
      ],
      "stateMutability": "view",
      "type": "function",
      "constant": true
    },
    {
      "inputs": [
        {
          "internalType": "uint256",
          "name": "amount",
          "type": "uint256"
        }
      ],
      "name": "bid",
      "outputs": [],
      "stateMutability": "payable",
      "type": "function",
      "payable": true
    },
    {
      "inputs": [],
      "name": "biggestBidder",
      "outputs": [
        {
          "internalType": "address payable",
          "name": "",
          "type": "address"
        }
      ],
      "stateMutability": "view",
      "type": "function",
      "constant": true
    },
    {
      "inputs": [],
      "name": "refund",
      "outputs": [],
      "stateMutability": "nonpayable",
      "type": "function"
    },
    {
      "inputs": [],
      "name": "transfertOwnership",
      "outputs": [],
      "stateMutability": "nonpayable",
      "type": "function"
    },
    {
      "inputs": [],
      "name": "auctionEnd",
      "outputs": [],
      "stateMutability": "nonpayable",
      "type": "function"
    }
  ],
  "bytecode": "0x608060405234801561001057600080fd5b50611761806100206000396000f3fe6080604052600436106100c25760003560e01c80635ccdeeec1161007f578063bf3c3d5211610059578063bf3c3d521461020f578063db5780061461023a578063f5330cf114610263578063fd91b5c01461028e576100c2565b80635ccdeeec146101a257806379771f30146101cd578063bdf3253d146101e4576100c2565b806328aaa44d146100c75780632a24f46c146100f05780632abddadb146101075780633810f05b14610144578063454a2ab31461016f578063590e1ae31461018b575b600080fd5b3480156100d357600080fd5b506100ee60048036038101906100e99190611214565b6102cb565b005b3480156100fc57600080fd5b506101056105c2565b005b34801561011357600080fd5b5061012e60048036038101906101299190611254565b610800565b60405161013b9190611290565b60405180910390f35b34801561015057600080fd5b5061015961084c565b6040516101669190611290565b60405180910390f35b610189600480360381019061018491906112ab565b610869565b005b34801561019757600080fd5b506101a0610ab4565b005b3480156101ae57600080fd5b506101b7610d49565b6040516101c49190611290565b60405180910390f35b3480156101d957600080fd5b506101e2610d53565b005b3480156101f057600080fd5b506101f9610f6d565b60405161020691906112e7565b60405180910390f35b34801561021b57600080fd5b506102246110dd565b6040516102319190611290565b60405180910390f35b34801561024657600080fd5b50610261600480360381019061025c91906112ab565b6110fb565b005b34801561026f57600080fd5b50610278611105565b6040516102859190611290565b60405180910390f35b34801561029a57600080fd5b506102b560048036038101906102b09190611254565b611122565b6040516102c2919061131d565b60405180910390f35b60008054906101000a900473ffffffffffffffffffffffffffffffffffffffff1673ffffffffffffffffffffffffffffffffffffffff163373ffffffffffffffffffffffffffffffffffffffff1603610359576040517f08c379a000000000000000000000000000000000000000000000000000000000815260040161035090611395565b60405180910390fd5b61036161084c565b42106103a2576040517f08c379a000000000000000000000000000000000000000000000000000000000815260040161039990611401565b60405180910390fd5b600660003373ffffffffffffffffffffffffffffffffffffffff1673ffffffffffffffffffffffffffffffffffffffff16815260200190815260200160002060010160149054906101000a900460ff1615610432576040517f08c379a000000000000000000000000000000000000000000000000000000000815260040161042990611493565b60405180910390fd5b600060405180606001604052808481526020018373ffffffffffffffffffffffffffffffffffffffff16815260200160011515815250905080600660003373ffffffffffffffffffffffffffffffffffffffff1673ffffffffffffffffffffffffffffffffffffffff1681526020019081526020016000206000820151816000015560208201518160010160006101000a81548173ffffffffffffffffffffffffffffffffffffffff021916908373ffffffffffffffffffffffffffffffffffffffff16021790555060408201518160010160146101000a81548160ff02191690831515021790555090505060078190806001815401808255809150506001900390600052602060002090600202016000909190919091506000820151816000015560208201518160010160006101000a81548173ffffffffffffffffffffffffffffffffffffffff021916908373ffffffffffffffffffffffffffffffffffffffff16021790555060408201518160010160146101000a81548160ff0219169083151502179055505050505050565b6105ca611105565b421061060b576040517f08c379a0000000000000000000000000000000000000000000000000000000008152600401610602906114ff565b60405180910390fd5b6106136110dd565b4211610654576040517f08c379a000000000000000000000000000000000000000000000000000000000815260040161064b9061156b565b60405180910390fd5b60011515600660003373ffffffffffffffffffffffffffffffffffffffff1673ffffffffffffffffffffffffffffffffffffffff16815260200190815260200160002060010160149054906101000a900460ff161515146106ea576040517f08c379a00000000000000000000000000000000000000000000000000000000081526004016106e1906115d7565b60405180910390fd5b600254600354106107a65760008054906101000a900473ffffffffffffffffffffffffffffffffffffffff1673ffffffffffffffffffffffffffffffffffffffff166108fc6006600061073b610f6d565b73ffffffffffffffffffffffffffffffffffffffff1673ffffffffffffffffffffffffffffffffffffffff168152602001908152602001600020600001549081150290604051600060405180830381858888f193505050501580156107a4573d6000803e3d6000fd5b505b6107ae610ab4565b6107b6610f6d565b600560006101000a81548173ffffffffffffffffffffffffffffffffffffffff021916908373ffffffffffffffffffffffffffffffffffffffff1602179055506107fe610d53565b565b6000600660008373ffffffffffffffffffffffffffffffffffffffff1673ffffffffffffffffffffffffffffffffffffffff168152602001908152602001600020600001549050919050565b60004260048190555060b46004546108649190611626565b905090565b60008054906101000a900473ffffffffffffffffffffffffffffffffffffffff1673ffffffffffffffffffffffffffffffffffffffff163373ffffffffffffffffffffffffffffffffffffffff16036108f7576040517f08c379a00000000000000000000000000000000000000000000000000000000081526004016108ee90611395565b60405180910390fd5b6108ff6110dd565b4210610940576040517f08c379a000000000000000000000000000000000000000000000000000000000815260040161093790611401565b60405180910390fd5b60011515600660003373ffffffffffffffffffffffffffffffffffffffff1673ffffffffffffffffffffffffffffffffffffffff16815260200190815260200160002060010160149054906101000a900460ff161515146109d6576040517f08c379a00000000000000000000000000000000000000000000000000000000081526004016109cd906115d7565b60405180910390fd5b6109de611105565b4210610a1f576040517f08c379a0000000000000000000000000000000000000000000000000000000008152600401610a16906114ff565b60405180910390fd5b6003548111610a63576040517f08c379a0000000000000000000000000000000000000000000000000000000008152600401610a5a906116a6565b60405180910390fd5b80600660003373ffffffffffffffffffffffffffffffffffffffff1673ffffffffffffffffffffffffffffffffffffffff168152602001908152602001600020600001819055508060038190555050565b60008054906101000a900473ffffffffffffffffffffffffffffffffffffffff1673ffffffffffffffffffffffffffffffffffffffff163373ffffffffffffffffffffffffffffffffffffffff1603610b42576040517f08c379a0000000000000000000000000000000000000000000000000000000008152600401610b3990611395565b60405180910390fd5b610b4a6110dd565b4211610b8b576040517f08c379a0000000000000000000000000000000000000000000000000000000008152600401610b829061156b565b60405180910390fd5b610b93611105565b4210610bd4576040517f08c379a0000000000000000000000000000000000000000000000000000000008152600401610bcb906114ff565b60405180910390fd5b60011515600660003373ffffffffffffffffffffffffffffffffffffffff1673ffffffffffffffffffffffffffffffffffffffff16815260200190815260200160002060010160149054906101000a900460ff16151514610c6a576040517f08c379a0000000000000000000000000000000000000000000000000000000008152600401610c61906115d7565b60405180910390fd5b60005b6007805490508160ff1611610d465760078160ff1681548110610c9357610c926116c6565b5b906000526020600020906002020160010160009054906101000a900473ffffffffffffffffffffffffffffffffffffffff1673ffffffffffffffffffffffffffffffffffffffff166108fc60078360ff1681548110610cf557610cf46116c6565b5b9060005260206000209060020201600001549081150290604051600060405180830381858888f19350505050158015610d32573d6000803e3d6000fd5b508080610d3e90611702565b915050610c6d565b50565b6000600254905090565b60008054906101000a900473ffffffffffffffffffffffffffffffffffffffff1673ffffffffffffffffffffffffffffffffffffffff163373ffffffffffffffffffffffffffffffffffffffff1603610de1576040517f08c379a0000000000000000000000000000000000000000000000000000000008152600401610dd890611395565b60405180910390fd5b610de96110dd565b4211610e2a576040517f08c379a0000000000000000000000000000000000000000000000000000000008152600401610e219061156b565b60405180910390fd5b610e32611105565b4210610e73576040517f08c379a0000000000000000000000000000000000000000000000000000000008152600401610e6a906114ff565b60405180910390fd5b60011515600660003373ffffffffffffffffffffffffffffffffffffffff1673ffffffffffffffffffffffffffffffffffffffff16815260200190815260200160002060010160149054906101000a900460ff16151514610f09576040517f08c379a0000000000000000000000000000000000000000000000000000000008152600401610f00906115d7565b60405180910390fd5b600560009054906101000a900473ffffffffffffffffffffffffffffffffffffffff166000806101000a81548173ffffffffffffffffffffffffffffffffffffffff021916908373ffffffffffffffffffffffffffffffffffffffff160217905550565b600060011515600660003373ffffffffffffffffffffffffffffffffffffffff1673ffffffffffffffffffffffffffffffffffffffff16815260200190815260200160002060010160149054906101000a900460ff16151514611005576040517f08c379a0000000000000000000000000000000000000000000000000000000008152600401610ffc906115d7565b60405180910390fd5b60008060005b6007805490508160ff161161108f5760078160ff1681548110611031576110306116c6565b5b90600052602060002090600202016000015483101561107c5760078160ff1681548110611061576110606116c6565b5b90600052602060002090600202016000015492508060ff1691505b808061108790611702565b91505061100b565b50600781815481106110a4576110a36116c6565b5b906000526020600020906002020160010160009054906101000a900473ffffffffffffffffffffffffffffffffffffffff169250505090565b60004260018190555061012c6001546110f69190611626565b905090565b8060028190555050565b600042600181905550602d60015461111d9190611626565b905090565b6000600660008373ffffffffffffffffffffffffffffffffffffffff1673ffffffffffffffffffffffffffffffffffffffff16815260200190815260200160002060010160149054906101000a900460ff169050919050565b600080fd5b6000819050919050565b61119381611180565b811461119e57600080fd5b50565b6000813590506111b08161118a565b92915050565b600073ffffffffffffffffffffffffffffffffffffffff82169050919050565b60006111e1826111b6565b9050919050565b6111f1816111d6565b81146111fc57600080fd5b50565b60008135905061120e816111e8565b92915050565b6000806040838503121561122b5761122a61117b565b5b6000611239858286016111a1565b925050602061124a858286016111ff565b9150509250929050565b60006020828403121561126a5761126961117b565b5b6000611278848285016111ff565b91505092915050565b61128a81611180565b82525050565b60006020820190506112a56000830184611281565b92915050565b6000602082840312156112c1576112c061117b565b5b60006112cf848285016111a1565b91505092915050565b6112e1816111d6565b82525050565b60006020820190506112fc60008301846112d8565b92915050565b60008115159050919050565b61131781611302565b82525050565b6000602082019050611332600083018461130e565b92915050565b600082825260208201905092915050565b7f6c652070617965757220657374206c652070726f707269657461697265000000600082015250565b600061137f601d83611338565b915061138a82611349565b602082019050919050565b600060208201905081810360008301526113ae81611372565b9050919050565b7f4c657320696e736372697074696f6e7320736f6e74207465726d696e65657300600082015250565b60006113eb601f83611338565b91506113f6826113b5565b602082019050919050565b6000602082019050818103600083015261141a816113de565b9050919050565b7f6c6520626964646572206e6520646f697420706173206574726520696e73637260008201527f6974000000000000000000000000000000000000000000000000000000000000602082015250565b600061147d602283611338565b915061148882611421565b604082019050919050565b600060208201905081810360008301526114ac81611470565b9050919050565b7f6c27656e6368657265206573742061646a756765652076656e64750000000000600082015250565b60006114e9601b83611338565b91506114f4826114b3565b602082019050919050565b60006020820190508181036000830152611518816114dc565b9050919050565b7f6c27656e6368657265206e2765737420706173207465726d696e656500000000600082015250565b6000611555601c83611338565b91506115608261151f565b602082019050919050565b6000602082019050818103600083015261158481611548565b9050919050565b7f6c652062696464657220646f6974206574726520696e73637269740000000000600082015250565b60006115c1601b83611338565b91506115cc8261158b565b602082019050919050565b600060208201905081810360008301526115f0816115b4565b9050919050565b7f4e487b7100000000000000000000000000000000000000000000000000000000600052601160045260246000fd5b600061163182611180565b915061163c83611180565b9250828201905080821115611654576116536115f7565b5b92915050565b7f6c65206d6f6e74616e74206573742074726f7020666169626c65000000000000600082015250565b6000611690601a83611338565b915061169b8261165a565b602082019050919050565b600060208201905081810360008301526116bf81611683565b9050919050565b7f4e487b7100000000000000000000000000000000000000000000000000000000600052603260045260246000fd5b600060ff82169050919050565b600061170d826116f5565b915060ff82036117205761171f6115f7565b5b60018201905091905056fea26469706673582212200d384da6620a08ecbea7e141aa7ec7da98d83eeb98c3e4064788a72c95a8e9ff64736f6c63430008110033",
  "immutableReferences": {},
  "source": "// SPDX-License-Identifier: GPL-3.0-or-later\npragma solidity >=0.4.22 <0.9.0;\n\ncontract Auction  {\n    address payable owner;\n    uint256 start_time;\n    uint256 reserve_price;\n    uint256 current_price;\n    uint256 start_register;\n    //mapping(address => uint256) bids;\n    address payable winner;\n    struct Bidder {\n        uint256 Value;\n        address payable addr_emitter;\n        bool isRegister;\n    }\n    mapping (address => Bidder) bidders;\n    Bidder[]  bids;\n    modifier ownable() {\n        require(msg.sender != owner, \"le payeur est le proprietaire\");\n        _;\n    }\n    modifier register() {\n        require(block.timestamp<TimeDuringRegister(), \"Les inscriptions sont terminees\");\n        _;\n    }\n     modifier isBidder(){\n     require(bidders[msg.sender].isRegister==true,\"le bidder doit etre inscrit\");\n     _;\n    }\n    modifier AuctionTime() {\n        require(block.timestamp<TimeDuringAuction(), \"Les inscriptions sont terminees\");\n        _;\n    }\n    modifier ActionAfterAuction(){\n      require(block.timestamp>TimeDuringAuction(), \"l'enchere n'est pas terminee\");\n      _;\n    }\n    modifier ActionBeforeLastBid(){\n        require(block.timestamp<TimeBeforeSold(), \"l'enchere est adjugee vendu\");\n        _;\n    }\n    modifier ActionAfterLastBid(){\n        require(block.timestamp<TimeBeforeSold(), \"l'enchere est adjugee vendu\");\n        _;\n    }\n    function getReserved_price() public view returns(uint256){\n        return (reserve_price);\n    }\n    function setReserved_price(uint256 _res_price) public {\n        reserve_price = _res_price;\n    }\n    function TimeDuringRegister() public returns(uint256){\n        start_register = block.timestamp;\n        return (start_register +3 minutes);\n    }\n    function TimeDuringAuction() public returns(uint256) {\n        start_time = block.timestamp;\n        return (start_time +5 minutes);\n    }\n    function TimeBeforeSold() public returns(uint256) {\n        start_time = block.timestamp;\n        return(start_time + 45 seconds);\n    }\n   \n    function addBidder (uint256 _value, address payable addr) public ownable register{\n        require(!bidders[msg.sender].isRegister,\"le bidder ne doit pas etre inscrit\");\n        Bidder memory newBidder = Bidder(_value, addr,true);\n        bidders[msg.sender] = newBidder;\n        bids.push(newBidder);\n    }\n    function getBiddersValue(address payable addr) external view  returns(uint256){\n        return(bidders[addr].Value);\n    } \n    function getBiddersRegister(address payable addr) external view returns(bool){\n        return(bidders[addr].isRegister);\n    }\n    function bid(uint256 amount) public payable ownable AuctionTime isBidder ActionBeforeLastBid {\n        require(amount > current_price, \"le montant est trop faible\");\n         bidders[msg.sender].Value=amount;\n         current_price = amount;\n    }\n    function biggestBidder() public view isBidder returns(address payable) {\n      uint max = 0;\n      uint win = 0;\n      for(uint8 i = 0; i <= bids.length; i++){\n            if (max<(bids[i].Value)){\n              max = bids[i].Value;\n              win = i;\n            }\n        }\n        return (bids[win].addr_emitter);\n\n    }\n    function refund() public ownable ActionAfterAuction ActionAfterLastBid isBidder{\n      for(uint8 i = 0; i <= bids.length; i++){\n            (bids[i].addr_emitter).transfer(bids[i].Value);\n        }\n    }\n    function transfertOwnership() public ownable ActionAfterAuction ActionAfterLastBid isBidder{\n        \n        owner = winner;\n    }\n    function auctionEnd() public ActionAfterLastBid ActionAfterAuction isBidder{\n\n        if (current_price >= reserve_price) {\n            owner.transfer(bidders[biggestBidder()].Value);\n        }\n        refund();\n        winner = biggestBidder();\n        transfertOwnership();\n    }\n} ",
  "sourcePath": "C:\\Users\\debuf\\Documents\\developpement\\Auctions\\contracts\\Auction.sol",
  "compiler": {
    "name": "solc",
    "version": "0.8.17+commit.8df45f5f.Emscripten.clang"
  },
  "schemaVersion": "3.4.15",
  "updatedAt": "2023-09-21T07:27:24.004Z",
  "networkType": "ethereum",
  "devdoc": {
    "kind": "dev",
    "methods": {},
    "version": 1
  },
  "userdoc": {
    "kind": "user",
    "methods": {},
    "version": 1
  }
}