{
  "contractName": "Auction",
  "abi": [
    {
      "inputs": [],
      "name": "getReserved_price",
      "outputs": [
        {
          "internalType": "uint256",
          "name": "",
          "type": "uint256"
        }
      ],
      "stateMutability": "view",
      "type": "function",
      "constant": true
    },
    {
      "inputs": [
        {
          "internalType": "uint256",
          "name": "_res_price",
          "type": "uint256"
        }
      ],
      "name": "setReserved_price",
      "outputs": [],
      "stateMutability": "nonpayable",
      "type": "function"
    },
    {
      "inputs": [],
      "name": "TimeDuringRegister",
      "outputs": [
        {
          "internalType": "uint256",
          "name": "",
          "type": "uint256"
        }
      ],
      "stateMutability": "nonpayable",
      "type": "function"
    },
    {
      "inputs": [],
      "name": "TimeDuringAuction",
      "outputs": [
        {
          "internalType": "uint256",
          "name": "",
          "type": "uint256"
        }
      ],
      "stateMutability": "nonpayable",
      "type": "function"
    },
    {
      "inputs": [],
      "name": "TimeBeforeSold",
      "outputs": [
        {
          "internalType": "uint256",
          "name": "",
          "type": "uint256"
        }
      ],
      "stateMutability": "nonpayable",
      "type": "function"
    },
    {
      "inputs": [
        {
          "internalType": "uint256",
          "name": "_value",
          "type": "uint256"
        },
        {
          "internalType": "address payable",
          "name": "addr",
          "type": "address"
        }
      ],
      "name": "addBidder",
      "outputs": [],
      "stateMutability": "nonpayable",
      "type": "function"
    },
    {
      "inputs": [
        {
          "internalType": "address payable",
          "name": "addr",
          "type": "address"
        }
      ],
      "name": "getBiddersValue",
      "outputs": [
        {
          "internalType": "uint256",
          "name": "",
          "type": "uint256"
        }
      ],
      "stateMutability": "view",
      "type": "function",
      "constant": true
    },
    {
      "inputs": [
        {
          "internalType": "address payable",
          "name": "addr",
          "type": "address"
        }
      ],
      "name": "getBiddersRegister",
      "outputs": [
        {
          "internalType": "bool",
          "name": "",
          "type": "bool"
        }
      ],
      "stateMutability": "view",
      "type": "function",
      "constant": true
    },
    {
      "inputs": [
        {
          "internalType": "uint256",
          "name": "amount",
          "type": "uint256"
        }
      ],
      "name": "bid",
      "outputs": [],
      "stateMutability": "payable",
      "type": "function",
      "payable": true
    },
    {
      "inputs": [],
      "name": "getCurrentPrice",
      "outputs": [
        {
          "internalType": "uint256",
          "name": "",
          "type": "uint256"
        }
      ],
      "stateMutability": "view",
      "type": "function",
      "constant": true
    },
    {
      "inputs": [],
      "name": "biggestBidder",
      "outputs": [
        {
          "internalType": "address payable",
          "name": "",
          "type": "address"
        }
      ],
      "stateMutability": "view",
      "type": "function",
      "constant": true
    },
    {
      "inputs": [],
      "name": "refund",
      "outputs": [],
      "stateMutability": "nonpayable",
      "type": "function"
    },
    {
      "inputs": [],
      "name": "transfertOwnership",
      "outputs": [],
      "stateMutability": "nonpayable",
      "type": "function"
    },
    {
      "inputs": [],
      "name": "auctionEnd",
      "outputs": [],
      "stateMutability": "nonpayable",
      "type": "function"
    }
  ],
  "bytecode": "0x608060405234801561001057600080fd5b50611843806100206000396000f3fe6080604052600436106100dd5760003560e01c806379771f301161007f578063db57800611610059578063db57800614610255578063eb91d37e1461027e578063f5330cf1146102a9578063fd91b5c0146102d4576100dd565b806379771f30146101e8578063bdf3253d146101ff578063bf3c3d521461022a576100dd565b80633810f05b116100bb5780633810f05b1461015f578063454a2ab31461018a578063590e1ae3146101a65780635ccdeeec146101bd576100dd565b806328aaa44d146100e25780632a24f46c1461010b5780632abddadb14610122575b600080fd5b3480156100ee57600080fd5b50610109600480360381019061010491906112f6565b610311565b005b34801561011757600080fd5b50610120610608565b005b34801561012e57600080fd5b5061014960048036038101906101449190611336565b610846565b6040516101569190611372565b60405180910390f35b34801561016b57600080fd5b50610174610892565b6040516101819190611372565b60405180910390f35b6101a4600480360381019061019f919061138d565b6108af565b005b3480156101b257600080fd5b506101bb610afa565b005b3480156101c957600080fd5b506101d2610d8f565b6040516101df9190611372565b60405180910390f35b3480156101f457600080fd5b506101fd610d99565b005b34801561020b57600080fd5b50610214610fb3565b60405161022191906113c9565b60405180910390f35b34801561023657600080fd5b5061023f611123565b60405161024c9190611372565b60405180910390f35b34801561026157600080fd5b5061027c6004803603810190610277919061138d565b61118a565b005b34801561028a57600080fd5b50610293611194565b6040516102a09190611372565b60405180910390f35b3480156102b557600080fd5b506102be61119e565b6040516102cb9190611372565b60405180910390f35b3480156102e057600080fd5b506102fb60048036038101906102f69190611336565b611204565b60405161030891906113ff565b60405180910390f35b60008054906101000a900473ffffffffffffffffffffffffffffffffffffffff1673ffffffffffffffffffffffffffffffffffffffff163373ffffffffffffffffffffffffffffffffffffffff160361039f576040517f08c379a000000000000000000000000000000000000000000000000000000000815260040161039690611477565b60405180910390fd5b6103a7610892565b42106103e8576040517f08c379a00000000000000000000000000000000000000000000000000000000081526004016103df906114e3565b60405180910390fd5b600660003373ffffffffffffffffffffffffffffffffffffffff1673ffffffffffffffffffffffffffffffffffffffff16815260200190815260200160002060010160149054906101000a900460ff1615610478576040517f08c379a000000000000000000000000000000000000000000000000000000000815260040161046f90611575565b60405180910390fd5b600060405180606001604052808481526020018373ffffffffffffffffffffffffffffffffffffffff16815260200160011515815250905080600660003373ffffffffffffffffffffffffffffffffffffffff1673ffffffffffffffffffffffffffffffffffffffff1681526020019081526020016000206000820151816000015560208201518160010160006101000a81548173ffffffffffffffffffffffffffffffffffffffff021916908373ffffffffffffffffffffffffffffffffffffffff16021790555060408201518160010160146101000a81548160ff02191690831515021790555090505060078190806001815401808255809150506001900390600052602060002090600202016000909190919091506000820151816000015560208201518160010160006101000a81548173ffffffffffffffffffffffffffffffffffffffff021916908373ffffffffffffffffffffffffffffffffffffffff16021790555060408201518160010160146101000a81548160ff0219169083151502179055505050505050565b61061061119e565b4210610651576040517f08c379a0000000000000000000000000000000000000000000000000000000008152600401610648906115e1565b60405180910390fd5b610659611123565b421161069a576040517f08c379a00000000000000000000000000000000000000000000000000000000081526004016106919061164d565b60405180910390fd5b60011515600660003373ffffffffffffffffffffffffffffffffffffffff1673ffffffffffffffffffffffffffffffffffffffff16815260200190815260200160002060010160149054906101000a900460ff16151514610730576040517f08c379a0000000000000000000000000000000000000000000000000000000008152600401610727906116b9565b60405180910390fd5b600254600354106107ec5760008054906101000a900473ffffffffffffffffffffffffffffffffffffffff1673ffffffffffffffffffffffffffffffffffffffff166108fc60066000610781610fb3565b73ffffffffffffffffffffffffffffffffffffffff1673ffffffffffffffffffffffffffffffffffffffff168152602001908152602001600020600001549081150290604051600060405180830381858888f193505050501580156107ea573d6000803e3d6000fd5b505b6107f4610afa565b6107fc610fb3565b600560006101000a81548173ffffffffffffffffffffffffffffffffffffffff021916908373ffffffffffffffffffffffffffffffffffffffff160217905550610844610d99565b565b6000600660008373ffffffffffffffffffffffffffffffffffffffff1673ffffffffffffffffffffffffffffffffffffffff168152602001908152602001600020600001549050919050565b60004260048190555060786004546108aa9190611708565b905090565b60008054906101000a900473ffffffffffffffffffffffffffffffffffffffff1673ffffffffffffffffffffffffffffffffffffffff163373ffffffffffffffffffffffffffffffffffffffff160361093d576040517f08c379a000000000000000000000000000000000000000000000000000000000815260040161093490611477565b60405180910390fd5b610945611123565b4210610986576040517f08c379a000000000000000000000000000000000000000000000000000000000815260040161097d906114e3565b60405180910390fd5b60011515600660003373ffffffffffffffffffffffffffffffffffffffff1673ffffffffffffffffffffffffffffffffffffffff16815260200190815260200160002060010160149054906101000a900460ff16151514610a1c576040517f08c379a0000000000000000000000000000000000000000000000000000000008152600401610a13906116b9565b60405180910390fd5b610a2461119e565b4210610a65576040517f08c379a0000000000000000000000000000000000000000000000000000000008152600401610a5c906115e1565b60405180910390fd5b6003548111610aa9576040517f08c379a0000000000000000000000000000000000000000000000000000000008152600401610aa090611788565b60405180910390fd5b80600660003373ffffffffffffffffffffffffffffffffffffffff1673ffffffffffffffffffffffffffffffffffffffff168152602001908152602001600020600001819055508060038190555050565b60008054906101000a900473ffffffffffffffffffffffffffffffffffffffff1673ffffffffffffffffffffffffffffffffffffffff163373ffffffffffffffffffffffffffffffffffffffff1603610b88576040517f08c379a0000000000000000000000000000000000000000000000000000000008152600401610b7f90611477565b60405180910390fd5b610b90611123565b4211610bd1576040517f08c379a0000000000000000000000000000000000000000000000000000000008152600401610bc89061164d565b60405180910390fd5b610bd961119e565b4210610c1a576040517f08c379a0000000000000000000000000000000000000000000000000000000008152600401610c11906115e1565b60405180910390fd5b60011515600660003373ffffffffffffffffffffffffffffffffffffffff1673ffffffffffffffffffffffffffffffffffffffff16815260200190815260200160002060010160149054906101000a900460ff16151514610cb0576040517f08c379a0000000000000000000000000000000000000000000000000000000008152600401610ca7906116b9565b60405180910390fd5b60005b6007805490508160ff1611610d8c5760078160ff1681548110610cd957610cd86117a8565b5b906000526020600020906002020160010160009054906101000a900473ffffffffffffffffffffffffffffffffffffffff1673ffffffffffffffffffffffffffffffffffffffff166108fc60078360ff1681548110610d3b57610d3a6117a8565b5b9060005260206000209060020201600001549081150290604051600060405180830381858888f19350505050158015610d78573d6000803e3d6000fd5b508080610d84906117e4565b915050610cb3565b50565b6000600254905090565b60008054906101000a900473ffffffffffffffffffffffffffffffffffffffff1673ffffffffffffffffffffffffffffffffffffffff163373ffffffffffffffffffffffffffffffffffffffff1603610e27576040517f08c379a0000000000000000000000000000000000000000000000000000000008152600401610e1e90611477565b60405180910390fd5b610e2f611123565b4211610e70576040517f08c379a0000000000000000000000000000000000000000000000000000000008152600401610e679061164d565b60405180910390fd5b610e7861119e565b4210610eb9576040517f08c379a0000000000000000000000000000000000000000000000000000000008152600401610eb0906115e1565b60405180910390fd5b60011515600660003373ffffffffffffffffffffffffffffffffffffffff1673ffffffffffffffffffffffffffffffffffffffff16815260200190815260200160002060010160149054906101000a900460ff16151514610f4f576040517f08c379a0000000000000000000000000000000000000000000000000000000008152600401610f46906116b9565b60405180910390fd5b600560009054906101000a900473ffffffffffffffffffffffffffffffffffffffff166000806101000a81548173ffffffffffffffffffffffffffffffffffffffff021916908373ffffffffffffffffffffffffffffffffffffffff160217905550565b600060011515600660003373ffffffffffffffffffffffffffffffffffffffff1673ffffffffffffffffffffffffffffffffffffffff16815260200190815260200160002060010160149054906101000a900460ff1615151461104b576040517f08c379a0000000000000000000000000000000000000000000000000000000008152600401611042906116b9565b60405180910390fd5b60008060005b6007805490508160ff16116110d55760078160ff1681548110611077576110766117a8565b5b9060005260206000209060020201600001548310156110c25760078160ff16815481106110a7576110a66117a8565b5b90600052602060002090600202016000015492508060ff1691505b80806110cd906117e4565b915050611051565b50600781815481106110ea576110e96117a8565b5b906000526020600020906002020160010160009054906101000a900473ffffffffffffffffffffffffffffffffffffffff169250505090565b600061112d610892565b421061116e576040517f08c379a0000000000000000000000000000000000000000000000000000000008152600401611165906114e3565b60405180910390fd5b4260018190555061012c6001546111859190611708565b905090565b8060028190555050565b6000600354905090565b60006111a8611123565b42106111e9576040517f08c379a00000000000000000000000000000000000000000000000000000000081526004016111e0906114e3565b60405180910390fd5b42600181905550602d6001546111ff9190611708565b905090565b6000600660008373ffffffffffffffffffffffffffffffffffffffff1673ffffffffffffffffffffffffffffffffffffffff16815260200190815260200160002060010160149054906101000a900460ff169050919050565b600080fd5b6000819050919050565b61127581611262565b811461128057600080fd5b50565b6000813590506112928161126c565b92915050565b600073ffffffffffffffffffffffffffffffffffffffff82169050919050565b60006112c382611298565b9050919050565b6112d3816112b8565b81146112de57600080fd5b50565b6000813590506112f0816112ca565b92915050565b6000806040838503121561130d5761130c61125d565b5b600061131b85828601611283565b925050602061132c858286016112e1565b9150509250929050565b60006020828403121561134c5761134b61125d565b5b600061135a848285016112e1565b91505092915050565b61136c81611262565b82525050565b60006020820190506113876000830184611363565b92915050565b6000602082840312156113a3576113a261125d565b5b60006113b184828501611283565b91505092915050565b6113c3816112b8565b82525050565b60006020820190506113de60008301846113ba565b92915050565b60008115159050919050565b6113f9816113e4565b82525050565b600060208201905061141460008301846113f0565b92915050565b600082825260208201905092915050565b7f6c652070617965757220657374206c652070726f707269657461697265000000600082015250565b6000611461601d8361141a565b915061146c8261142b565b602082019050919050565b6000602082019050818103600083015261149081611454565b9050919050565b7f4c657320696e736372697074696f6e7320736f6e74207465726d696e65657300600082015250565b60006114cd601f8361141a565b91506114d882611497565b602082019050919050565b600060208201905081810360008301526114fc816114c0565b9050919050565b7f6c6520626964646572206e6520646f697420706173206574726520696e73637260008201527f6974000000000000000000000000000000000000000000000000000000000000602082015250565b600061155f60228361141a565b915061156a82611503565b604082019050919050565b6000602082019050818103600083015261158e81611552565b9050919050565b7f6c27656e6368657265206573742061646a756765652076656e64750000000000600082015250565b60006115cb601b8361141a565b91506115d682611595565b602082019050919050565b600060208201905081810360008301526115fa816115be565b9050919050565b7f6c27656e6368657265206e2765737420706173207465726d696e656500000000600082015250565b6000611637601c8361141a565b915061164282611601565b602082019050919050565b600060208201905081810360008301526116668161162a565b9050919050565b7f6c652062696464657220646f6974206574726520696e73637269740000000000600082015250565b60006116a3601b8361141a565b91506116ae8261166d565b602082019050919050565b600060208201905081810360008301526116d281611696565b9050919050565b7f4e487b7100000000000000000000000000000000000000000000000000000000600052601160045260246000fd5b600061171382611262565b915061171e83611262565b9250828201905080821115611736576117356116d9565b5b92915050565b7f6c65206d6f6e74616e74206573742074726f7020666169626c65000000000000600082015250565b6000611772601a8361141a565b915061177d8261173c565b602082019050919050565b600060208201905081810360008301526117a181611765565b9050919050565b7f4e487b7100000000000000000000000000000000000000000000000000000000600052603260045260246000fd5b600060ff82169050919050565b60006117ef826117d7565b915060ff8203611802576118016116d9565b5b60018201905091905056fea2646970667358221220d84ad41905a30c51b702a8a3dd121def5a3730e4d1793c0f24bb9be96bf9a72764736f6c63430008110033",
  "immutableReferences": {},
  "source": "// SPDX-License-Identifier: GPL-3.0-or-later\npragma solidity >=0.4.22 <0.9.0;\n\ncontract Auction  {\n    address payable owner;\n    uint256 start_time;\n    uint256 reserve_price;\n    uint256 current_price;\n    uint256 start_register;\n    //mapping(address => uint256) bids;\n    address payable winner;\n    struct Bidder {\n        uint256 Value;\n        address payable addr_emitter;\n        bool isRegister;\n    }\n    mapping (address => Bidder) bidders;\n    Bidder[]  bids;\n    modifier ownable() {\n        require(msg.sender != owner, \"le payeur est le proprietaire\");\n        _;\n    }\n    modifier register() {\n        require(block.timestamp<TimeDuringRegister(), \"Les inscriptions sont terminees\");\n        _;\n    }\n     modifier isBidder(){\n     require(bidders[msg.sender].isRegister==true,\"le bidder doit etre inscrit\");\n     _;\n    }\n    modifier AuctionTime() {\n        require(block.timestamp<TimeDuringAuction(), \"Les inscriptions sont terminees\");\n        _;\n    }\n    modifier ActionAfterAuction(){\n      require(block.timestamp>TimeDuringAuction(), \"l'enchere n'est pas terminee\");\n      _;\n    }\n    modifier ActionBeforeLastBid(){\n        require(block.timestamp<TimeBeforeSold(), \"l'enchere est adjugee vendu\");\n        _;\n    }\n    modifier ActionAfterLastBid(){\n        require(block.timestamp<TimeBeforeSold(), \"l'enchere est adjugee vendu\");\n        _;\n    }\n    function getReserved_price() public view returns(uint256){\n        return (reserve_price);\n    }\n    function setReserved_price(uint256 _res_price) public {\n        reserve_price = _res_price;\n    }\n    function TimeDuringRegister() public returns(uint256){\n        start_register = block.timestamp;\n        return (start_register +2 minutes);\n    }\n    function TimeDuringAuction() public register returns(uint256) {\n        start_time = block.timestamp;\n        return (start_time +5 minutes);\n    }\n    function TimeBeforeSold() public AuctionTime returns(uint256) {\n        start_time = block.timestamp;\n        return(start_time + 45 seconds);\n    }\n   \n    function addBidder (uint256 _value, address payable addr) public ownable register{\n        require(!bidders[msg.sender].isRegister,\"le bidder ne doit pas etre inscrit\");\n        Bidder memory newBidder = Bidder(_value, addr,true);\n        bidders[msg.sender] = newBidder;\n        bids.push(newBidder);\n    }\n    function getBiddersValue(address payable addr) external view  returns(uint256){\n        return(bidders[addr].Value);\n    } \n    function getBiddersRegister(address payable addr) external view returns(bool){\n        return(bidders[addr].isRegister);\n    }\n    function bid(uint256 amount) public payable ownable AuctionTime isBidder ActionBeforeLastBid {\n        require(amount > current_price, \"le montant est trop faible\");\n         bidders[msg.sender].Value=amount;\n         current_price = amount;\n    }\n    function getCurrentPrice() external view returns(uint256){\n        return (current_price);\n    }/*\n    function blockStart(uint256 time) external returns(uint256){\n        bloc= block.timestamp + time seconds;\n        return (bloc);\n    }\n    //\n    function blocKRegister () external{\n        TimeDuringRegister()+blockStart(1);\n    }*/\n    function biggestBidder() public view isBidder returns(address payable) {\n      uint max = 0;\n      uint win = 0;\n      for(uint8 i = 0; i <= bids.length; i++){\n            if (max<(bids[i].Value)){\n              max = bids[i].Value;\n              win = i;\n            }\n        }\n        return (bids[win].addr_emitter);\n\n    }\n    function refund() public ownable ActionAfterAuction ActionAfterLastBid isBidder{\n      for(uint8 i = 0; i <= bids.length; i++){\n            (bids[i].addr_emitter).transfer(bids[i].Value);\n        }\n    }\n    function transfertOwnership() public ownable ActionAfterAuction ActionAfterLastBid isBidder{\n        \n        owner = winner;\n    }\n    function auctionEnd() public ActionAfterLastBid ActionAfterAuction isBidder{\n\n        if (current_price >= reserve_price) {\n            owner.transfer(bidders[biggestBidder()].Value);\n        }\n        refund();\n        winner = biggestBidder();\n        transfertOwnership();\n    }\n} ",
  "sourcePath": "C:\\Users\\debuf\\Documents\\developpement\\Auctions\\contracts\\Auction.sol",
  "compiler": {
    "name": "solc",
    "version": "0.8.17+commit.8df45f5f.Emscripten.clang"
  },
  "schemaVersion": "3.4.15",
  "updatedAt": "2023-09-21T09:04:40.406Z",
  "networkType": "ethereum",
  "devdoc": {
    "kind": "dev",
    "methods": {},
    "version": 1
  },
  "userdoc": {
    "kind": "user",
    "methods": {},
    "version": 1
  }
}